:04000000FEEFFFF020
:10FE640000809A45418E418F804545454949498ED8
:10FE74008F9092924F994F555559999A9B9C9D9E5C
:10FE84009F41494F55A5A5A6A7A8A9AAABACADAE5D
:10FE9400AFB0B1B2B3B4B5B6B7B8B9BABBBCBDBEF6
:10FEA400BFC0C1C2C3C4C5C6C7C8C9CACBCCCDCEE6
:10FEB400CFD0D1D2D3D4D5D6D7D8D9DADBDCDDDED6
:10FEC400DFE0E1E2E3E4E5E6E7E8E9EAEBECEDEEC6
:10FED400EFF0F1F2F3F4F5F6F7F8F9FAFBFCFDFEB6
:10FEE400FF4095000041F9000049AF00014A1B00A2
:10FEF400014CC300004DAF020050FF000051FF0051
:10FF04000152FF000158FF000159FF000160FF008A
:10FF14000061FF000062FF000063FF000064FF0057
:10FF24000065FF000066DF01007189010069E500DA
:10FF340000777300007A2503007B25000000000091
:10FF440000000000000000000000000000000000AD
:10FF54000000000000000000000000010002000496
:10FF64000008001000200000000100040010004000
:10FF74000000010002000002200001000220000035
:10FF8400002B2E2C3B3D5B5D2F5C222A3A3C3E3FEE
:10FF94007C7F004E4F204E414D452020202046417D
:10FFA400542020202020004E4F204E414D4520203B
:10FFB4002020464154333220202000222A2B2C3A80
:10FFC4003B3C3D3E3F5B5D7C7F00EBFE904D5344EC
:10FFD4004F53352E300048454C4C4F2E5458540046
:10FFE4006D6963726F205344004641543332006498
:0CFFF4006174610046415400303A000086
:020000040001F9
:10000000610074F5D9F4610078F5DAF4000EDE6E63
:10001000000EDD6E5BC501F55CC502F5F3ECA6F0E4
:1000200001C588F502C589F5050189BF1CEF80F07F
:100030001AEF80F01FEF80F00B0EA0EF86F0D89043
:100040008835D96E8935DA6EFD0ED926050EDA228D
:10005000610078F3A0F5610074F3A1F5A051A1113E
:10006000D8A435EF80F037EF80F03AEF80F00C0E37
:10007000A0EF86F0610074F5D9F4610078F5DAF448
:10008000610080F6DEF4610084F6DDF45F906100CB
:1000900080F6D9F4610084F6DAF4DF50D8B453EF77
:1000A00080F055EF80F07CEF80F020EE01F0A05161
:1000B000D926A151DA22DF5079ECB0F00501906F1A
:1000C00090B165EF80F067EF80F07CEF80F05F50DB
:1000D000D8B46DEF80F06FEF80F079EF80F090A5ED
:1000E00074EF80F076EF80F079EF80F00A0EA0EFE9
:1000F00086F0000EA0EF86F0610080F6D9F4610072
:1001000084F6DAF4000EDF6E20EE01F0A051D9265D
:10011000A151DA22610020F6DFF420EE01F0A051B7
:10012000D926A151DA22DF503BECB2F00501906FE5
:1001300090A19DEF80F09FEF80F0A2EF80F0030E82
:10014000A0EF86F05F50D8B4A8EF80F0AAEF80F05F
:10015000B3EF80F090A5AFEF80F0B1EF80F0B3EF98
:1001600080F076EF80F0000E996F000E9A6F000E0F
:100170009B6F000E9C6FA0C554F5A1C555F599C5A0
:1001800056F59AC557F59BC558F59CC559F565ECCC
:10019000A8F005019F6F020E9F19D8B4D2EF80F02E
:1001A000D4EF80F0D6EF80F0B2EF81F0000E9E6FBA
:1001B000000E9D6F9E5109E1040E9D5DD8A0E3EFF6
:1001C00080F0E5EF80F0E7EF80F04BEF81F09DC528
:1001D00060F59EC561F5603B613BF00E61176051B3
:1001E0000F0B6113F00E6017A0C562F5A1C563F592
:1001F0006051622761516323F10E6225826F010E07
:100200006321836F20EE04F08251D9268351DA22D4
:10021000DF50D8A40EEF81F010EF81F01AEF81F0DB
:10022000000E786F000E796F000E7A6F000E7B6FF4
:100230002AEF81F0080E8225016E000E8321026EE6
:10024000ACECAEF001C578F502C579F503C57AF5D9
:1002500004C57BF5680E0501606F050E616FD890CF
:100260009D35D96E9E35DA6ED890D936DA36605122
:10027000D9266151DA226100E0F5DEF46100E4F58F
:10028000DEF46100E8F5DEF46100ECF5DEF49D4B90
:100290009E2BDAEF80F0000E9E6F000E9D6F9D5139
:1002A0009E11D8B456EF81F058EF81F05BEF81F0EA
:1002B0009D07D8A09E07680E606F050E616FD890ED
:1002C0009D35D96E9E35DA6ED890D936DA366051C2
:1002D000D9266151DA22610078F399F5610078F34B
:1002E0009AF5610078F39BF5610078F39CF59951DC
:1002F0009A119B119C11D8A480EF81F082EF81F0BC
:1003000088EF81F0000E7D6F030E7C6F9BEF81F014
:10031000A0C554F5A1C555F599C556F59AC557F52B
:100320009BC558F59CC559F565ECA8F00501606FB3
:1003300060517C6F7D6B7CC59FF5010E9F65A3EFBF
:1003400081F0A5EF81F0B2EF81F09D4B9E2B9E5185
:1003500009E1040E9D5DD8A0B0EF81F0B2EF81F00D
:100360005BEF81F0040E9F19D8A4B9EF81F0BBEFC9
:1003700081F0BEEF81F0010EA0EF86F0010E9F65C7
:10038000C4EF81F0C6EF81F0C9EF81F00D0EA0EF50
:1003900086F03E0EA025016E000EA121026EDDEC5E
:1003A000B2F0020E02180110D8B4D9EF81F0DBEFE1
:1003B00081F0DDEF81F0C6EF81F0490E0501A02547
:1003C000016E000EA121026EDDECB2F001C595F5C3
:1003D00002C596F50501976B986B9551961197118B
:1003E0009811D8A4F6EF81F0F8EF81F008EF82F0D1
:1003F000570EA025016E000EA121026EACECAEF0EE
:1004000001C595F502C596F503C597F504C598F5A0
:10041000050120EE1BF0A051D926A151DA2261007E
:1004200054F6DEF4610058F6DEF461005CF6DEF4AA
:10043000610060F6DEF420EE43F0A051D926A15110
:10044000DA2210EE02F0A051E126A151E222DFC42F
:10045000E7F420EE02F0A051D926A151DA22DE0401
:10046000D8B435EF82F037EF82F048EF82F020EE1B
:1004700002F0A051D926A151DA22020EDE18D8B41A
:1004800044EF82F046EF82F048EF82F0C6EF81F051
:1004900095C501F596C502F597C503F598C504F510
:1004A00020EE02F0A051D926A151DA22DF50606F70
:1004B0006051056E066A076A086AD9ECB1F001C599
:1004C00095F502C596F503C597F504C598F50501A0
:1004D00020EE40F0A051D926A151DA22DF50606F02
:1004E000616B20EE09F0A051D926A151DA226100FA
:1004F00080F5DEF4610084F5DDF420EE09F0A05112
:10050000D926A151DA22DE50DE10D8B48AEF82F06B
:100510008CEF82F0C6EF81F020EE09F0A051D926D1
:10052000A151DA22610078F360F5610074F361F59E
:10053000FF0E626FFF0E636F20EE09F0A051D92607
:10054000A151DA22610078F364F5610074F365F576
:1005500062516427635165236051641761516517C7
:1005600064516511D8B4B7EF82F0B9EF82F0BBEFF8
:1005700082F0C6EF81F0440EA025016E000EA1218D
:10058000026EDDECB2F0050120EE07F0A051D92695
:10059000A151DA22610004F4DEF4610008F4DDF414
:1005A00020EE07F0A051D926A151DA22610078F39C
:1005B00060F5610074F361F50F0E6017000E6117AE
:1005C00060516111D8B4E7EF82F0E9EF82F0EBEF10
:1005D00082F0C6EF81F0460EA025016E000EA1212B
:1005E000026EDDECB2F001C58CF502C58DF505019A
:1005F0008E6B8F6B8C518D118E118F11D8A403EFE0
:1006000083F005EF83F015EF83F0530EA025016E04
:10061000000EA121026EACECAEF001C58CF502C556
:100620008DF503C58EF504C58FF5410E0501A02596
:10063000016E000EA121026EDDECB2F001C58AF55B
:1006400002C58BF505018A518B11D8A42AEF83F0DE
:100650002CEF83F02EEF83F0C6EF81F020EE07F051
:10066000A051D926A151DA22610078F360F561002A
:1006700074F361F5040E626FD89061336033622FBA
:100680003CEF83F08A516025636F8B516121646F69
:10069000656BD8B0652B666B95516325846F965159
:1006A0006421856F97516521866F98516621876F08
:1006B00084518C5D85518D5986518E5987518F5942
:1006C000D8B065EF83F067EF83F069EF83F0C6EF92
:1006D00081F084518C5D016E85518D59026E865179
:1006E0008E59036E87518F59046E20EE09F0A05188
:1006F000D926A151DA22610078F360F5610074F324
:1007000061F560C505F561C506F5076A086A0AEC7A
:10071000AFF001C591F502C592F503C593F504C587
:1007200094F505019151921193119411D8A49BEF66
:1007300083F09DEF83F09FEF83F0C6EF81F0000E12
:100740009F6FF60E915DFF0E9259FF0E93590F0E9B
:100750009459D8B0AEEF83F0B0EF83F0B2EF83F0EE
:10076000030E9F6F9451931109E1F60E915DFF0EF8
:100770009259D8B0BEEF83F0C0EF83F0C2EF83F0A0
:10078000020E9F6F9451931109E1F60E915D0F0EC9
:100790009259D8B0CEEF83F0D0EF83F0D2EF83F050
:1007A000010E9F6F9F51D8A4D8EF83F0DAEF83F04A
:1007B000DCEF83F0C6EF81F0020E9125606F000E32
:1007C0009221616F000E9321626F000E9421636F7E
:1007D00020EE17F0A051D926A151DA22610080F550
:1007E000DEF4610084F5DEF4610088F5DEF461007A
:1007F0008CF5DEF420EE1FF0A051D926A151DA22AB
:10080000610064F6DEF4610068F6DEF461006CF607
:10081000DEF4610070F6DEF48A519925606F8B5129
:100820009A21616F000E9B21626F000E9C21636F05
:1008300020EE23F0A051D926A151DA22610080F5E3
:10084000DEF4610084F5DEF4610088F5DEF4610019
:100850008CF5DEF484519925606F85519A21616F82
:1008600086519B21626F87519C21636F20EE2BF094
:10087000A051D926A151DA22610080F5DEF4610091
:1008800084F5DEF4610088F5DEF461008CF5DEF4B9
:10089000030E9F19D8A44FEF84F051EF84F0B6EF08
:1008A00084F05D0EA025016E000EA121026EDDEC2C
:1008B000B2F001500210D8B460EF84F062EF84F01F
:1008C00064EF84F0C6EF81F0050120EE07F0A0513F
:1008D000D926A151DA22DE50DE10D8B472EF84F0AE
:1008E00074EF84F076EF84F0C6EF81F05F0EA02500
:1008F000016E000EA121026EACECAEF0050120EEFF
:1009000027F0A051D926A151DA22610004F4DEF4C7
:10091000610008F4DEF461000CF4DEF4610010F410
:10092000DEF420EE17F0A051D926A151DA226100A1
:1009300078F360F5610078F361F5610078F362F5B2
:10094000610078F363F5020ED89060376137623743
:100950006337E82EA4EF84F060C57EF561C57FF5AE
:1009600062C580F563C581F569EF85F020EE07F07B
:10097000A051D926A151DA22DE50DE10D8A4C3EF4F
:1009800084F0C5EF84F0C7EF84F0C6EF81F020EE6D
:1009900023F0A051D926A151DA22610078F360F545
:1009A000610078F361F5610078F362F5610078F336
:1009B00063F595516025646F96516121656F97517C
:1009C0006221666F98516321676F20EE27F0A05176
:1009D000D926A151DA22610090F5DEF4610094F588
:1009E000DEF4610098F5DEF461009CF5DEF4020EA1
:1009F0009F19D8B4FEEF84F000EF85F04EEF85F03C
:100A000020EE17F0A051D926A151DA22610078F327
:100A100060F5610078F361F5610078F362F56100DB
:100A200078F363F5010E6015646F000E6115656F54
:100A3000000E6215666F000E6315676F20EE17F0EB
:100A4000A051D926A151DA22610078F301F56100A5
:100A500078F302F5610078F303F5610078F304F5AB
:100A6000030E056E000E066E000E076E000E086E79
:100A7000D9ECB1F0D89004320332023201320501D0
:100A8000645101247E6F655102207F6F66510320FF
:100A9000806F67510420816F69EF85F020EE17F0B9
:100AA000A051D926A151DA22610078F360F56100E6
:100AB00078F361F5610078F362F5610078F363F52E
:100AC000D89060357E6F61357F6F6235806F63359A
:100AD000816FFF0E7E25606F010E7F21616F000E1A
:100AE0008021626F000E8121636F0A0E7DEF85F019
:100AF000D8906333623361336033E82E78EF85F04A
:100B000020EE1BF0A051D926A151DA226051DE5C03
:100B10006151DE586251DE586351DE58D8B093EF10
:100B200085F095EF85F097EF85F0C6EF81F020EE28
:100B30000FF0A051D926A151DA22FF0EDE6EFF0E72
:100B4000DE6EFF0EDE6EFF0EDD6EDD52DD5210EE4C
:100B50000BF0A051E126A151E222DEC4E6F4DEC48E
:100B6000E6F4DEC4E6F4DEC4E6F420EE04F0A051C0
:100B7000D926A151DA22800EDF6E030E9F19D8A468
:100B8000C4EF85F0C6EF85F07CEF86F0630EA025FC
:100B9000016E000EA121026EDDECB2F00104021024
:100BA000D8A4D5EF85F0D7EF85F07CEF86F0A0C50F
:100BB00049F5A1C54AF5010E050199254B6E000EB8
:100BC0009A214C6E000E9B214D6E000E9C214E6EA4
:100BD00046ECAEF00009D8A4F0EF85F0F2EF85F016
:100BE0007CEF86F0050120EE04F0A051D926A1513A
:100BF000DA22000EDF6E310EA025016E020EA12159
:100C0000026EDDECB2F0550E011807E1AA0E0218D3
:100C1000D8A40DEF86F00FEF86F07CEF86F0330E50
:100C20000501A025016E000EA121026EACECAEF014
:100C3000520E01180DE1520E02180AE1610E03185E
:100C400007E1410E0418D8A428EF86F02AEF86F0B9
:100C50007CEF86F0170E0501A025016E020EA12182
:100C6000026EACECAEF0720E01180DE1720E0218BD
:100C70000AE1410E031807E1610E0418D8A443EFFE
:100C800086F045EF86F07CEF86F01B0E0501A0256F
:100C9000016E020EA121026EACECAEF0050120EE59
:100CA0000FF0A051D926A151DA22610004F4DEF43C
:100CB000610008F4DEF461000CF4DEF4610010F46D
:100CC000DEF41F0EA025016E020EA121026EACEC17
:100CD000AEF0050120EE0BF0A051D926A151DA2289
:100CE000610004F4DEF4610008F4DEF461000CF449
:100CF000DEF4610010F4DEF4610080F6D9F46100E6
:100D000084F6DAF461007CF6DFF40501FB4BFC2B82
:100D100020EE05F0A051D926A151DA226100ECF7AE
:100D2000DEF46100F0F7DDF420EE13F0A051D926D7
:100D3000A151DA22DE6ADE6ADE6ADD6A79EF80F0CE
:100D4000120096C5ADF597C5AEF5610068F6D9F409
:100D500061006CF6DAF4000EDE6E000EDD6E94C5F6
:100D600007F595C508F5BD0E096E050E0A6E62EC15
:100D7000AAF00501AC6FAC51D8A4C1EF86F0C3EF67
:100D800086F055EF8BF020EE0FF09451D926955157
:100D9000DA22DF50AC6FAC51D8B4D1EF86F0D3EF8C
:100DA00086F0D5EF86F055EF8BF020EE0EF09451E3
:100DB000D9269551DA22DFB2E0EF86F0E2EF86F035
:100DC000E4EF86F055EF8BF020EE10F09451D92629
:100DD0009551DA2210EE10F09451E1269551E2225D
:100DE000610098F3A0F5610098F3A1F5610098F314
:100DF000A2F5610098F3A3F59851A025A46F99512D
:100E0000A121A56F000EA221A66F000EA321A76F3E
:100E1000DE50A45DDE50A559DE50A659DE50A7591C
:100E2000D8B015EF87F017EF87F044EF8BF020EE86
:100E300010F09451D9269551DA22610078F39CF58F
:100E4000610074F39DF59C1D986F9D1D996F44EF93
:100E50008BF020EE10F09451D9269551DA22FF0E36
:100E6000DE149C6F010EDE149D6F000EDE149E6F6B
:100E7000000EDE149F6F9C519D119E119F11D8A4EE
:100E800044EF87F046EF87F072EF8AF020EE10F023
:100E90009451D9269551DA22610078F39CF56100CE
:100EA00078F39DF5610078F39EF5610078F39FF586
:100EB0000A0E60EF87F0D8909F339E339D339C33AA
:100EC000E82E5BEF87F0FF0EA06FFF0EA16F20EE04
:100ED00009F0BD51D926BE51DA22610078F3A2F59E
:100EE000610074F3A3F5A051A227A151A3239C5143
:100EF000A215AF6F9D51A315B06FAF51B011D8A41B
:100F000084EF87F086EF87F08DEF88F020EE10F009
:100F10009451D9269551DA22DE50DE10DE10DE1013
:100F2000D8A495EF87F097EF87F0CCEF87F020EE0D
:100F300006F09451D9269551DA22610078F3B5F57F
:100F4000610078F3B6F5610078F3B7F5610078F3E6
:100F5000B8F5B551B611B711B811D8A4B2EF87F0F2
:100F6000B4EF87F01DEF88F094C577F595C578F557
:100F7000000E796F000E7A6F000E7B6F000E7C6F93
:100F80006BEC8FF077C5B5F578C5B6F579C5B7F5D3
:100F90007AC5B8F51DEF88F020EE22F09451D926DD
:100FA0009551DA22DE50DE10D8B4D9EF87F0DBEFAE
:100FB00087F0FDEF87F094C50EF595C50FF520EE8F
:100FC00010F09451D9269551DA22610078F310F58A
:100FD000610078F311F5610078F312F5610078F3A0
:100FE00013F535ECA6F00EC5B5F50FC5B6F510C571
:100FF000B7F511C5B8F51DEF88F094C577F595C51F
:1010000078F520EE14F09451D9269551DA2261003A
:1010100078F379F5610078F37AF5610078F37BF580
:10102000610078F37CF56BEC8FF077C5B5F578C58A
:10103000B6F579C5B7F57AC5B8F50501B551B6115C
:10104000B711B811D8A427EF88F029EF88F02BEF5B
:1010500088F04DEF8BF0B505B611B711B811D8A4D3
:1010600034EF88F036EF88F040EF88F020EE0FF094
:101070009451D9269551DA22020EDF6E55EF8BF08E
:10108000B5290AE1B62908E1B72906E1B829D8A4AB
:101090004CEF88F04EEF88F058EF88F020EE0FF01C
:1010A0009451D9269551DA22010EDF6E55EF8BF05F
:1010B00020EE14F09451D9269551DA226100D4F62D
:1010C000DEF46100D8F6DEF46100DCF6DEF46100E7
:1010D000E0F6DEF420EE06F09451D9269551DA229E
:1010E000DE50DE10DE10DE10D8A479EF88F07BEF42
:1010F00088F08DEF88F020EE06F09451D9269551B6
:10110000DA226100D4F6DEF46100D8F6DEF4610084
:10111000DCF6DEF46100E0F6DEF420EE0EF0945131
:10112000D9269551DA22DFAE98EF88F09AEF88F051
:10113000DBEF88F0240E94252A6E000E95212B6E8D
:1011400020EE18F09451D9269551DA22610078F3F7
:101150002CF5610078F32DF5610078F32EF5610030
:1011600078F32FF5000E316E010E306E20EE01F097
:10117000BD51D926BE51DA22DF502EECB1F0000964
:10118000D8B4C5EF88F0C7EF88F0D2EF88F005013A
:1011900020EE0FF09451D9269551DA22010EDF6E20
:1011A00055EF8BF0050120EE0EF09451D9269551A4
:1011B000DA227F0EDF16BDC50DF5BEC50EF520EE99
:1011C00014F09451D9269551DA22610078F30FF585
:1011D000610078F310F5610078F311F5610078F3A0
:1011E00012F572ECADF00DC5B9F50EC5BAF50FC527
:1011F000BBF510C5BCF50501B951BA11BB11BC1145
:10120000D8A405EF89F007EF89F011EF89F020EEFF
:101210000FF09451D9269551DA22020EDF6E55EF68
:101220008BF0AF51B927B051BA23000EBB23000E8B
:10123000BC2398C59CF599C59DF5090E9E6FD89065
:101240009D339C339E2F1FEF89F09CC5B1F59DC542
:10125000B2F5B151B211D8B430EF89F032EF89F064
:10126000FEEF89F0B151AF259C6FB251B0219D6F57
:1012700020EE09F0BD51D926BE51DA229C51DE5C28
:101280009D51DE58D8B047EF89F049EF89F05BEF08
:1012900089F020EE09F0BD51D926BE51DA22610055
:1012A00078F39CF5610074F39DF5AF519C5DB16FCF
:1012B000B0519D59B26FADC52AF5AEC52BF5B9C574
:1012C0002CF5BAC52DF5BBC52EF5BCC52FF5B1C59E
:1012D00030F5B2C531F520EE01F0BD51D926BE5131
:1012E000DA22DF502EECB1F00009D8B47AEF89F0A1
:1012F0007CEF89F087EF89F0050120EE0FF0945123
:10130000D9269551DA22010EDF6E55EF8BF00501DB
:10131000B1519C6FB2519D6F9E6B9F6B20EE18F088
:101320009451D9269551DA22610078F3A0F5610035
:1013300078F3A1F5610078F3A2F5610078F3A3F5E5
:10134000B951A05DA46FBA51A159A56FBB51A25963
:10135000A66FBC51A359A76F9C51A45D9D51A5597F
:101360009E51A6599F51A759D8B0B9EF89F0BBEF4C
:1013700089F0EDEF89F0240E9425016E000E952181
:10138000026E20EE18F09451D9269551DA226100B0
:1013900078F39CF5610074F39DF5B9519C5FBA51E7
:1013A0009D5B090ED8909C379D37E82ED2EF89F0CF
:1013B0009C51AD25036E9D51AE21046E020E066E4A
:1013C000000E056EB7ECB0F0050120EE0EF0945162
:1013D000D9269551DA227F0EDF16B1C59CF5B2C52C
:1013E0009DF5090ED8909C379D37E82EF2EF89F0D5
:1013F0009CC5B3F59DC5B4F5D2EF8AF020EE18F088
:101400009451D9269551DA22B951DE180FE1BA511B
:10141000DE180CE1BB51DE1809E1BC51DE18D8B46E
:1014200014EF8AF016EF8AF05FEF8AF020EE0AF0F0
:101430009451D9269551DA2210EE10F09451E126FC
:101440009551E222DE50E65CDE50E658DE50E6586A
:10145000DE50E658D8B02FEF8AF031EF8AF05FEF18
:101460008AF0240E94252A6E000E95212B6EB9C5A4
:101470002CF5BAC52DF5BBC52EF5BCC52FF5000E54
:10148000316E010E306E20EE01F0BD51D926BE51F5
:10149000DA22DF5068ECB1F00009D8B452EF8AF0DC
:1014A00054EF8AF05FEF8AF0050120EE0FF09451BF
:1014B000D9269551DA22010EDF6E55EF8BF005012A
:1014C00020EE18F09451D9269551DA226100E4F605
:1014D000DEF46100E8F6DEF46100ECF6DEF46100B3
:1014E000F0F6DEF4FF0E9C6F010E9D6F20EE10F003
:1014F0009451D9269551DA22610078F39EF5610066
:1015000074F39FF59C519E179D519F179E510008A3
:10151000B36F9F51D8A0E82A0208B46FB351985D09
:10152000B4519959D8B097EF8AF099EF8AF09DEFAE
:101530008AF098C5B3F599C5B4F5FF0E9C6F010EFE
:101540009D6F20EE10F09451D9269551DA2261005A
:1015500078F39EF5610074F39FF59C519E179D51A1
:101560009F1794C5A0F595C5A1F59E51A0279F5141
:10157000A123240EA025016E000EA121026EADC58F
:1015800003F5AEC504F5B3C505F5B4C506F5B7EC6E
:10159000B0F0050120EE0EF09451D9269551DA22D3
:1015A000000EDB8EB351985FB451995B610068F611
:1015B000D9F461006CF6DAF4B351DE26B451DD22C1
:1015C000B351AD27B451AE2320EE10F09451D9267B
:1015D0009551DA22B351DE26B451DE22000EDE220E
:1015E000DE2220EE10F09451D9269551DA2210EE29
:1015F0000AF09451E1269551E222DE50E65CDE507D
:10160000E658DE50E658DE50E658D8A00AEF8BF0D8
:101610000CEF8BF020EF8BF020EE0AF09451D926DE
:101620009551DA22610078F3A8F5610078F3A9F505
:10163000610078F3AAF5610078F3ABF532EF8BF037
:1016400020EE10F09451D9269551DA22610078F3FA
:10165000A8F5610078F3A9F5610078F3AAF56100B7
:1016600078F3ABF520EE0AF09451D9269551DA22A1
:101670006100A0F6DEF46100A4F6DEF46100A8F6D5
:10168000DEF46100ACF6DEF498519911D8A44BEF6A
:101690008BF04DEF8BF029EF87F020EE0EF0945198
:1016A000D9269551DA22000EDB8C12000501C451B7
:1016B000C511D8A45EEF8BF060EF8BF063EF8BF079
:1016C000090E6AEF8FF03F0EC817C60E5B6E050E4F
:1016D0005C6E180E5D6E060E5E6EC8C55FF500ECA2
:1016E00080F006011A6F1A51D8A479EF8BF07BEFC6
:1016F0008BF056EF8FF018C61BF619C61CF61B0EA2
:101700000501B66F060EB76FC6C5B8F5C7C5B9F502
:10171000B9EC9DF006011A6F1A51D8A492EF8BF024
:1017200094EF8BF09DEF8BF042AF99EF8BF09BEF36
:101730008BF09DEF8BF0060E1A6FC8C5C9F51C0E15
:101740000501C917D8B4A7EF8BF0A9EF8BF0C2EF52
:101750008CF006011A51D8B4B0EF8BF0B2EF8BF0D9
:10176000C8EF8BF0040E1A19D8A4B9EF8BF0BBEFB9
:101770008BF0C4EF8BF01B0E0501BA6F060EBB6F2A
:1017800081ECACF006011A6F0501C887E3EF8BF01E
:101790001FC6C9F5110E0501C917D8B4D2EF8BF0D9
:1017A000D4EF8BF0D9EF8BF0070E06011A6FE3EF41
:1017B0008BF0C8A5DEEF8BF0E0EF8BF0E3EF8BF062
:1017C000080E06011A6F06011A51D8A4EAEF8BF031
:1017D000ECEF8BF0E8EF8CF00501C8A7F2EF8BF08F
:1017E000F4EF8BF0E8EF8CF018C608F519C609F590
:1017F00035C60AF536C60BF5F5ECAFF008C50CF6A4
:1018000009C50DF60AC50EF60BC50FF60E0E06013C
:101810003525016E000E3621026E000E036E000E9D
:10182000046EED0E056E540E066E37ECB0F0060138
:1018300020EE0BF03551D9263651DA22200EDF6E1C
:1018400018C605F519C606F535C607F536C608F5F6
:10185000000E096E000E0A6E000E0B6E000E0C6E6E
:101860008EECB2F01C0E06013525016E000E3621FD
:10187000026E000E036E000E046E000E056E000E6A
:10188000066E37ECB0F0060120EE03F01851D926B1
:101890001951DA22010EDF6E0C510D110E110F11CC
:1018A000D8B455EF8CF057EF8CF0E8EF8CF020EEC9
:1018B0002FF01851D9261951DA22610078F300F679
:1018C000610078F301F6610078F302F6610078F3C5
:1018D00003F61B0E0501776F060E786F0CC679F5BF
:1018E0000DC67AF50EC67BF50FC67CF5000E7D6F32
:1018F000000E7E6F000E7F6F000E806F45ECA0F033
:1019000006011A6F1A51D8A488EF8CF08AEF8CF078
:10191000E8EF8CF018C649F519C64AF500C64BF534
:1019200001C64CF502C64DF503C64EF546ECAEF0C9
:1019300006011A6FFF0E0C250501C96FFF0E060187
:101940000D210501CA6FFF0E06010E210501CB6FA7
:10195000FF0E06010F210501CC6F060120EE0BF0F2
:101960001851D9261951DA22610024F7DEF46100FA
:1019700028F7DEF461002CF7DEF4610030F7DEF4C6
:10198000E8EF8CF006011A51D8A4C9EF8CF0CBEF28
:101990008CF0E8EF8CF01FA9D0EF8CF0D2EF8CF038
:1019A000D6EF8CF0040E1A6FE8EF8CF00501C8A397
:1019B000DCEF8CF0DEEF8CF0E8EF8CF006011FA17D
:1019C000E4EF8CF0E6EF8CF0E8EF8CF0070E1A6F86
:1019D00006011A51D8A4EFEF8CF0F1EF8CF01CEF58
:1019E0008DF00501C8A7F7EF8CF0F9EF8CF0FAEF56
:1019F0008CF0C88D060120EE2FF01851D926195110
:101A0000DA22050110EE1CF0C451E126C551E22294
:101A1000DEC4E6F4DEC4E6F4DEC4E6F4DEC4E6F4D6
:101A200020EE20F0C451D926C551DA226100D4F845
:101A3000DEF46100D8F8DDF406011A51D8A423EFD2
:101A40008DF025EF8DF056EF8FF018C608F519C60A
:101A500009F535C60AF536C60BF5F5ECAFF005010C
:101A600020EE06F0C451D926C551DA22610020F4D7
:101A7000DEF4610024F4DEF4610028F4DEF4610099
:101A80002CF4DEF41C0E06013525016E000E362105
:101A9000026EACECAEF0050120EE0AF0C451D9267E
:101AA000C551DA22610004F4DEF4610008F4DEF4CA
:101AB00061000CF4DEF4610010F4DEF420EE22F09C
:101AC000C451D926C551DA22000EDE6E000EDD6E3D
:101AD000610010F7D9F4610014F7DAF4610060F8DE
:101AE000DEF4610064F8DDF4060120EE05F0185123
:101AF000D9261951DA22050110EE02F0C451E1266F
:101B0000C551E222DEC4E6F4DDC4E5F420EE0EF0B9
:101B1000C451D926C551DA22610020F7DFF420EE46
:101B20000FF0C451D926C551DA22000EDF6E20EE27
:101B300018F0C451D926C551DA22DE6ADE6ADE6A9F
:101B4000DD6A20EE10F0C451D926C551DA22DE6AD2
:101B5000DE6ADE6ADD6A240EC425016E000EC52130
:101B6000026E000E046E000E036E020E066E000E74
:101B7000056E33ECB3F00501C8ABC1EF8DF0C3EFD8
:101B80008DF056EF8FF020EE0AF0C451D926C551E2
:101B9000DA22DE50DE10DE10DE10D8B4D2EF8DF087
:101BA000D4EF8DF056EF8FF020EE0AF0C451D92615
:101BB000C551DA2210EE10F0C451E126C551E222DF
:101BC000DEC4E6F4DEC4E6F4DEC4E6F4DEC4E6F425
:101BD000060120EE09F01851D9261951DA226100C8
:101BE00078F3C9F5610074F3CAF50501C951CB6FEB
:101BF000CA51CC6FCD6BCE6B090ED890CB37CC379A
:101C0000CD37CE37E82EFDEF8DF0CBC508F6CCC52D
:101C100009F6CDC50AF6CEC50BF620EE06F0C45186
:101C2000D926C551DA22610078F314F6610078F301
:101C300015F6610078F316F6610078F317F620EEDA
:101C40000AF0C451D926C551DA22610078F310F6A2
:101C5000610078F311F6610078F312F6610078F311
:101C600013F671EF8EF0C4C554F5C5C555F514C60D
:101C700056F515C657F516C658F517C659F59DEC15
:101C800099F054C514F655C515F656C516F657C540
:101C900017F6060117511611151107E1020E145D12
:101CA000D8B055EF8EF057EF8EF059EF8EF0020E50
:101CB0001A6F14290AE1152908E1162906E11729E6
:101CC000D8A465EF8EF067EF8EF069EF8EF0010E0D
:101CD0001A6F0851105F0951115B0A51125B0B51C9
:101CE000135B06011A51D8A478EF8EF07AEF8EF0CC
:101CF00089EF8EF01051085D1151095912510A599E
:101D000013510B59D8A087EF8EF089EF8EF033EF87
:101D10008EF0050120EE14F0C451D926C551DA2207
:101D2000610050F8DEF4610054F8DEF4610058F808
:101D3000DEF461005CF8DEF406011A51D8A4A3EFCA
:101D40008EF0A5EF8EF056EF8FF0FF0E1015050107
:101D5000C96F010E060111150501CA6F000E0601BB
:101D600012150501CB6F000E060113150501CC6F8E
:101D7000C951CA11CB11CC11D8B4C1EF8EF0C3EF49
:101D80008EF056EF8FF018C60DF519C60EF514C675
:101D90000FF515C610F516C611F517C612F572EC3B
:101DA000ADF00DC504F60EC505F60FC506F610C557
:101DB00007F606010451051106110711D8A4E3EF37
:101DC0008EF0E5EF8EF0E9EF8EF0020E1A6F56EF0F
:101DD0008FF010C6C9F511C6CAF512C6CBF513C6E9
:101DE000CCF50A0EFAEF8EF00501D890CC33CB3348
:101DF000CA33C933E82EF4EF8EF006010451050111
:101E0000C925CD6F060105510501CA21CE6F060116
:101E100006510501CB21CF6F060107510501CC21E9
:101E2000D06F20EE18F0C451D926C551DA226100D6
:101E300034F7DEF4610038F7DEF461003CF7DEF4DD
:101E4000610040F7DEF4240EC4252A6E000EC52181
:101E50002B6E20EE18F0C451D926C551DA2261004C
:101E600078F32CF5610078F32DF5610078F32EF509
:101E7000610078F32FF5000E316E010E306E060111
:101E800020EE01F01851D9261951DA22DF5068EC02
:101E9000B1F00009D8B44FEF8FF051EF8FF056EF4B
:101EA0008FF0010E06011A6F56EF8FF006011A51DE
:101EB000D8B45DEF8FF05FEF8FF069EF8FF06100C6
:101EC00010F7D9F4610014F7DAF4000EDE6E000E9C
:101ED000DD6E1A5112006100DCF5D9F46100E0F505
:101EE000DAF4610078F38EF5610074F38FF5050183
:101EF00079517A117B117C11D8A481EF8FF083EF97
:101F00008FF0BFEF8FF020EE0BF08E51D9268F515E
:101F1000DA22610078F386F5610078F387F56100D5
:101F200078F388F5610078F389F586518711881177
:101F30008911D8B49EEF8FF0A0EF8FF0B5EF8FF03E
:101F400020EE17F08E51D9268F51DA22DE50865DB1
:101F5000DE508759DE508859DE508959D8A0B3EF3A
:101F60008FF0B5EF8FF024EF90F0010E866F000E2A
:101F7000876F000E886F000E896F24EF90F077C591
:101F800054F578C555F579C556F57AC557F57BC52D
:101F900058F57CC559F59DEC99F054C590F555C59B
:101FA00091F556C592F557C593F5050193519211D8
:101FB000911107E1020E905DD8B0E1EF8FF0E3EFF1
:101FC0008FF0EDEF8FF0010E776F000E786F000E3F
:101FD000796F000E7A6F52EF92F090290AE1912901
:101FE00008E1922906E19329D8A4F9EF8FF0FBEFDD
:101FF0008FF005EF90F090C577F591C578F592C513
:1020000079F593C57AF552EF92F020EE17F08E51E4
:10201000D9268F51DA22DE50905DDE509159DE5084
:102020009259DE509359D8B018EF90F01AEF90F013
:102030001CEF90F0FBEF8FF079C586F57AC587F538
:102040007BC588F57CC589F520EE0FF08E51D92629
:102050008F51DA22DE50DE10DE10DE10D8A433EF0E
:1020600090F035EF90F03FEF90F0000E776F000E9C
:10207000786F000E796F000E7A6F52EF92F0000EBB
:102080008A6F000E8B6F000E8C6F000E8D6F795172
:1020900086190DE17A5187190AE17B51881907E108
:1020A0007C518919D8A457EF90F059EF90F003EFC5
:1020B00091F0010E86258A6F000E87218B6F000E2E
:1020C00088218C6F000E89218D6F20EE17F08E51C4
:1020D000D9268F51DA22DE508A5DDE508B59DE50D0
:1020E0008C59DE508D59D8A078EF90F07AEF90F0AF
:1020F00082EF90F0020E8A6F000E8B6F000E8C6FD5
:10210000000E8D6F77C554F578C555F58AC556F51F
:102110008BC557F58CC558F58DC559F59DEC99F0D3
:1021200054C590F555C591F556C592F557C593F52B
:1021300005019005911192119311D8B4A2EF90F07E
:10214000A4EF90F0FBEF8FF090290AE1912908E1CC
:10215000922906E19329D8A4B0EF90F0B2EF90F065
:10216000B4EF90F0FBEF8FF0905191119211931119
:10217000D8B4BDEF90F0BFEF90F003EF91F020EEF8
:102180000BF08E51D9268F51DA22610078F390F549
:10219000610078F391F5610078F392F5610078F3CE
:1021A00093F593519211911109E1020E905DD8A01F
:1021B000DCEF90F0DEEF90F0FBEF90F020EE17F008
:1021C0008E51D9268F51DA22DE50905DDE50915922
:1021D000DE509259DE509359D8B0F1EF90F0F3EF02
:1021E00090F0FBEF90F090C586F591C587F592C50C
:1021F00088F593C589F5000E8A6F000E8B6F000E6F
:102200008C6F000E8D6F8A518B118C118D11D8A49B
:102210000CEF91F00EEF91F09BEF91F086C58AF5EF
:1022200087C58BF588C58CF589C58DF5010E8A2784
:10223000000E8B238C238D2320EE17F08E51D92690
:102240008F51DA22DE508A5DDE508B59DE508C5978
:10225000DE508D59D8A02FEF91F031EF91F048EF7B
:1022600091F0020E8A6F000E8B6F000E8C6F000EC5
:102270008D6F89518811871107E1020E865DD8B0F4
:1022800044EF91F046EF91F048EF91F035EF90F088
:1022900077C554F578C555F58AC556F58BC557F5FC
:1022A0008CC558F58DC559F59DEC99F054C590F540
:1022B00055C591F556C592F557C593F50501905151
:1022C000911192119311D8A468EF91F06AEF91F0F7
:1022D0006CEF91F09BEF91F0900591119211931199
:1022E000D8B475EF91F077EF91F0FBEF8FF0902974
:1022F0000AE1912908E1922906E19329D8A483EF04
:1023000091F085EF91F087EF91F0FBEF8FF0865120
:102310008A190DE187518B190AE188518C1907E15F
:1023200089518D19D8A497EF91F099EF91F016EF9C
:1023300091F035EF90F08EC554F58FC555F58AC5EF
:1023400056F58BC557F58CC558F58DC559F5FF0E5B
:102350005A6EFF0E5B6EFF0E5C6EFF0E5D6E53ECF1
:1023600092F00501856F8551D8A4B9EF91F0BBEFCC
:1023700091F0DEEF91F079517A117B117C11D8B494
:10238000C4EF91F0C6EF91F0DEEF91F08EC554F5F9
:102390008FC555F579C556F57AC557F57BC558F5FE
:1023A0007CC559F58AC55AF58BC55BF58CC55CF5BE
:1023B0008DC55DF553EC92F00501856F8551D8A46C
:1023C000E4EF91F0E6EF91F034EF92F020EE0BF0B5
:1023D0008E51D9268F51DA22610028F6DEF4610091
:1023E0002CF6DEF4610030F6DEF4610034F6DEF443
:1023F00020EE0FF08E51D9268F51DA2210EE17F011
:102400008E51E1268F51E222FE0EE624816FFF0EEF
:10241000E620826FFF0EE620836FFF0EE620846FBA
:10242000DE50815DDE508259DE508359DE50845982
:10243000D8A01DEF92F01FEF92F02AEF92F020EE5D
:102440000FF08E51D9268F51DA22DE06000EDE5AA9
:10245000DE5ADE5A20EE04F08E51D9268F51DA2250
:10246000000EDB804AEF92F08505D8B43AEF92F087
:102470003CEF92F046EF92F0010E8A6F000E8B6FE8
:10248000000E8C6F000E8D6F4AEF92F08A698B6997
:102490008C698D698AC577F58BC578F58CC579F51A
:1024A0008DC57AF51200020E0501766F595058104D
:1024B000571009E1020E565CD8A061EF92F063EF6D
:1024C00092F007EF95F020EE17F05450D9265550B2
:1024D000DA22DE50565CDE505758DE505858DE5037
:1024E0005958D8B076EF92F078EF92F007EF95F068
:1024F000E8EF94F056C574F557C575F5D890753169
:10250000616F7431606F605174276151752354C5D8
:1025100049F555C54AF520EE23F05450D9265550BB
:10252000DA22610078F360F5610078F361F561000B
:1025300078F362F5610078F363F574C564F575C5E9
:1025400065F5090E666FD89065336433662FA3EF87
:1025500092F0645160254B6E655161214C6E000E06
:1025600062214D6E000E63214E6E46ECAEF0050109
:10257000766F7651D8B4BFEF92F0C1EF92F0C3EF0F
:1025800092F007EF95F0FF0E606F010E616F74C55A
:1025900062F575C563F5605162176151631754C5E3
:1025A00064F555C565F56251642763516523330EA3
:1025B0006425726F000E6521736F744B752B56B0D6
:1025C000E4EF92F0E6EF92F0EBEF92F05AC56EF581
:1025D0006F6B07EF93F05A50606F616B603B613B2C
:1025E000F00E611760510F0B6113F00E6017610060
:1025F000C8F5D9F46100CCF5DAF4DF500F0B626F47
:10260000636B605162116E6F615163116F6F610096
:10261000C8F5D9F46100CCF5DAF46100B8F5DFF45F
:1026200020EE03F05450D9265550DA22010EDF6E09
:1026300054C549F555C54AF520EE23F05450D92626
:102640005550DA22610078F360F5610078F361F5A6
:10265000610078F362F5610078F363F574C564F5A1
:1026600075C565F5090E666FD89065336433662FBE
:1026700034EF93F0645160254B6E655161214C6ECF
:10268000000E62214D6E000E63214E6E46ECAEF0E0
:102690000501766F7651D8B450EF93F052EF93F076
:1026A00054EF93F007EF95F0FF0E606F010E616F2E
:1026B00074C562F575C563F56051621761516317A2
:1026C00054C564F555C565F56251642763516523AA
:1026D000330E6425726F000E6521736F56B073EF71
:1026E00093F075EF93F095EF93F05AC560F55BC5E5
:1026F00061F55CC562F55DC563F561C560F562C5F0
:1027000061F563C562F5636B0F0E60176100C8F574
:10271000D9F46100CCF5DAF4DF50F00B6011646F8E
:102720006451706F716BABEF93F05AC560F55BC588
:1027300061F55CC562F55DC563F5050EA5EF93F027
:10274000D8906333623361336033E82EA0EF93F0A7
:102750006051706F716B6100C8F5D9F46100CCF500
:10276000DAF46100C0F5DFF420EE03F05450D9260E
:102770005550DA22010EDF6E07EF95F054C549F58A
:1027800055C54AF520EE23F05450D9265550DA228B
:10279000610078F360F5610078F361F5610078F32A
:1027A00062F5610078F363F556C564F557C565F5C4
:1027B00058C566F559C567F565C564F566C565F51F
:1027C00067C566F5676B605164254B6E6151652185
:1027D0004C6E625166214D6E635167214E6E46EC20
:1027E000AEF00501766F7651D8B4F9EF93F0FBEFB8
:1027F00093F0FDEF93F007EF95F0FF0E606F010E81
:10280000616F56C562F557C563F5D8906237633777
:10281000605162176151631754C564F555C565F57C
:102820006251642763516523330E6425016E000EE7
:102830006521026E5AC503F55BC504F5A0ECB3F043
:1028400020EE03F05450D9265550DA22010EDF6EE7
:1028500007EF95F054C549F555C54AF520EE23F02C
:102860005450D9265550DA22610078F360F56100A2
:1028700078F361F5610078F362F5610078F363F550
:1028800056C564F557C565F558C566F559C567F56C
:10289000080E50EF94F0D890673366336533643395
:1028A000E82E4BEF94F0605164254B6E6151652129
:1028B0004C6E625166214D6E635167214E6E46EC3F
:1028C000AEF00501766F7651D8B469EF94F06BEFF6
:1028D00094F06DEF94F007EF95F0FF0E606F010E2E
:1028E000616F56C562F557C563F5D8906237633797
:1028F000D89062376337605162176151631754C5CE
:1029000064F555C565F56251642763516523330E3F
:102910006425016E000E6521026EACECAEF0000E77
:1029200001140501666F000E0214676F000E031498
:10293000686FF00E0414696FFF0E5A146A6FFF0E71
:102940005B146B6FFF0E5C146C6F0F0E5D146D6F7C
:1029500066516A115A6E67516B115B6E68516C114A
:102960005C6E69516D115D6EFF0E606F010E616FDF
:1029700056C562F557C563F5D89062376337D8906E
:1029800062376337605162176151631754C564F54C
:1029900055C565F56251642763516523330E64257F
:1029A000016E000E6521026E5AC503F55BC504F584
:1029B0005CC505F55DC506F537ECB0F020EE03F01B
:1029C0005450D9265550DA22010EDF6E07EF95F0EC
:1029D000610050F5D9F4610054F5DAF4DF50606F0E
:1029E000616B6151000AD8B4F8EF94F007EF95F0ED
:1029F0006051010AD8B47AEF92F0030AD8B4BEEF5E
:102A000093F0010AD8B42AEF94F007EF95F005018E
:102A10007651120061002CF4D9F4610030F4DAF43C
:102A2000610078F318F5610074F319F51C0E0924A0
:102A30001C6E000E0A201D6E1CC501F51DC502F599
:102A4000000E046E200E036E000E066E0B0E056E59
:102A500033ECB3F0000E1B6E000E1A6E1AC51EF595
:102A60001BC51FF5000E176E080E166E1E5018249B
:102A70000D6E1F5019200E6E610034F4F6F46100E3
:102A800038F4F7F4000EF86E0800F5502E0AD8A4BA
:102A90004CEF95F04EEF95F0D2EF95F01E501824C4
:102AA0000D6E1F5019200E6E610034F4F6F46100B3
:102AB00038F4F7F4000EF86E08006100D4F320F546
:102AC0001E4A1F2A2E0E2018D8A469EF95F06BEF2E
:102AD00095F085EF95F01F5009E1030E1E5CD8A01C
:102AE00074EF95F076EF95F078EF95F085EF95F02F
:102AF0001A501C24D96E1B501D20DA6E610080F420
:102B0000DFF41A4A1B2A4EEF95F02F0E2018D8B486
:102B10008CEF95F08EEF95F0A2EF95F05C0E2018FB
:102B2000D8B495EF95F097EF95F0A2EF95F0200EC1
:102B300020649DEF95F09FEF95F0A2EF95F0060EC3
:102B400065EF97F01E5018240D6E1F5019200E6E61
:102B500061002CF4D9F4610030F4DAF4610034F44B
:102B6000DEF4610038F4DDF4200E2064BAEF95F055
:102B7000BCEF95F0C2EF95F0000E126E200E116EB4
:102B8000C6EF95F0000E126E240E116E20EE0BF0C3
:102B90001C50D9261D50DA22610044F4DFF4000EE7
:102BA00065EF97F01E5018240D6E1F5019200E6E01
:102BB000610034F4F6F4610038F4F7F4000EF86EB6
:102BC00008006100D4F320F51E4A1F2A210E206060
:102BD000ECEF95F0EEEF95F0F0EF95F014EF97F045
:102BE0002F0E2018D8B4F7EF95F0F9EF95F006EF17
:102BF00096F05C0E2018D8A400EF96F002EF96F045
:102C000038EF96F006EF96F01E4A1F2A1E50182441
:102C10000D6E1F5019200E6E610034F4F6F4610041
:102C200038F4F7F4000EF86E0800F5502F0AD8B407
:102C30001CEF96F01EEF96F004EF96F01E5018244D
:102C40000D6E1F5019200E6E610034F4F6F4610011
:102C500038F4F7F4000EF86E0800F5505C0AD8B4AA
:102C600034EF96F036EF96F004EF96F014EF97F00D
:102C70002E0E2018D8B43FEF96F041EF96F04CEFAF
:102C800096F016501A5C17501B58D8A04AEF96F0D1
:102C90004CEF96F06BEF96F00B0E16181710D8B499
:102CA00054EF96F056EF96F09FEF95F02E0E201809
:102CB000D8B45DEF96F05FEF96F061EF96F09FEF7E
:102CC00095F0000E1B6E080E1A6E000E176E0B0E9E
:102CD000166ED2EF95F07F0E206471EF96F073EFD1
:102CE00096F084EF96F020507F0B0D6E0E6A650E05
:102CF0000D24F66EFE0E0E20F76EF86A000EF82216
:102D000008006100D4F320F52050B3ECB4F001507A
:102D10000210D8B48EEF96F090EF96F0E1EF96F0B7
:102D20001E5018240D6E1F5019200E6E610034F4D1
:102D3000F6F4610038F4F7F4000EF86E0800610054
:102D4000D4F315F51E4A1F2A1550AEECB4F001500D
:102D50000210D8B4AEEF96F0B0EF96F09FEF95F07A
:102D6000FF0E0D6EFF0E0E6E16C50FF517C510F592
:102D70000D500F260E5010220F501A5C10501B5889
:102D8000D8A0C5EF96F0C7EF96F0C9EF96F09FEF89
:102D900095F01A501C24D96E1B501D20DA6E61006C
:102DA00080F4DFF41A4A1B2A1A501C24D96E1B50D7
:102DB0001D20DA6E610054F4DFF41A4A1B2AD2EFA8
:102DC00095F0BF0E016EFF0E026E20C503F5046A7A
:102DD000F3ECB0F001500210D8B4F1EF96F0F3EF3D
:102DE00096F0F5EF96F09FEF95F0600E2064FBEF04
:102DF00096F0FDEF96F007EF97F07B0E206003EF63
:102E000097F005EF97F007EF97F0200E205E1A502D
:102E10001C24D96E1B501D20DA6E610080F4DFF493
:102E20001A4A1B2AD2EF95F01E5018240D6E1F501F
:102E300019200E6E61002CF4D9F4610030F4DAF43C
:102E4000610034F4DEF4610038F4DDF41A501B1034
:102E5000D8A42DEF97F02FEF97F031EF97F09FEF79
:102E600095F0610070F4D9F4610074F4DAF4E50EC1
:102E7000DE18D8A43EEF97F040EF97F048EF97F0B8
:102E8000610070F4D9F4610074F4DAF4050EDF6EB9
:102E9000200E20644EEF97F050EF97F056EF97F02A
:102EA000000E146E000E136E5AEF97F0000E146EA3
:102EB000040E136E20EE0BF01C50D9261D50DA22A2
:102EC00061004CF4DFF4CFEF95F01200610050F692
:102ED000D9F4610054F6DAF4610078F3A8F56100E2
:102EE00074F3A9F5050120EE0EF09451D926955101
:102EF000DA22610078F398F5610078F399F56100C2
:102F000078F39AF5610078F39BF5200E9825A46F6D
:102F1000000E9921A56F000E9A21A66F000E9B212D
:102F2000A76F20EE16F09451D9269551DA22DE5083
:102F3000DE10DE10DE10D8B4A0EF97F0A2EF97F00D
:102F4000ADEF97F0A75109E1200EA65DD8A0ABEF39
:102F500097F0ADEF97F0B0EF97F0040E9CEF99F07B
:102F6000FF0EA415986F010EA515996F000EA615FA
:102F70009A6F000EA7159B6F985199119A119B118A
:102F8000D8A4C5EF97F0C7EF97F065EF99F020EE62
:102F900016F09451D9269551DA22DE2A000EDE224F
:102FA000DE22DE2220EE12F09451D9269551DA224B
:102FB000DE50DE10DE10DE10D8A4E1EF97F0E3EF74
:102FC00097F023EF98F020EE07F0A851D926A951E9
:102FD000DA22610078F398F5610074F399F598515D
:102FE0009A6F99519B6F9C6B9D6BA4C59EF5A5C56F
:102FF0009FF5A6C5A0F5A7C5A1F5060E05EF98F0AB
:10300000D890A133A0339F339E33E82E00EF98F081
:103010009A519E5D9B519F599C51A0599D51A15918
:10302000D8A015EF98F017EF98F065EF99F020EE23
:1030300016F09451D9269551DA22DE6ADE6ADE6AEC
:10304000DD6AADEF97F0FF0E986FFF0E996F20EEDF
:1030500009F0A851D926A951DA22610078F39AF52E
:10306000610074F39BF598519A2799519B23A4C54D
:103070009CF5A5C59DF5A6C59EF5A7C59FF50A0EAD
:1030800047EF98F0D8909F339E339D339C33E82EC2
:1030900042EF98F09A519C15A06F9B519D15A16F1E
:1030A000000E9E15A26F000E9F15A36FA051A111D7
:1030B000A211A311D8A45FEF98F061EF98F065EF2B
:1030C00099F094C554F595C555F520EE12F094513C
:1030D000D9269551DA22610078F356F5610078F32C
:1030E00057F5610078F358F5610078F359F59DECD8
:1030F00099F054C5AAF555C5ABF556C5ACF557C5FD
:10310000ADF50501AD51AC11AB1107E1020EAA5DA1
:10311000D8B08DEF98F08FEF98F092EF98F0020E04
:103120009CEF99F0AA290AE1AB2908E1AC2906E154
:10313000AD29D8A49EEF98F0A0EF98F0A3EF98F0F7
:10314000010E9CEF99F020EE17F0A851D926A95155
:10315000DA22DE50AA5DDE50AB59DE50AC59DE50AB
:10316000AD59D8A0B6EF98F0B8EF98F031EF99F0DC
:1031700096519711D8A4BFEF98F0C1EF98F0CDEF1A
:1031800098F020EE16F09451D9269551DA22DE6A95
:10319000DE6ADE6ADD6AADEF97F094C577F595C516
:1031A00078F520EE12F09451D9269551DA2261007B
:1031B00078F379F5610078F37AF5610078F37BF5BF
:1031C000610078F37CF56BEC8FF077C5AAF578C5D4
:1031D000ABF579C5ACF57AC5ADF50501AA51AB11D2
:1031E000AC11AD11D8A4F7EF98F0F9EF98F0FCEF1F
:1031F00098F0070E9CEF99F0AA05AB11AC11AD1138
:10320000D8A405EF99F007EF99F009EF99F08FEF47
:1032100098F0AA290AE1AB2908E1AC2906E1AD2919
:10322000D8A415EF99F017EF99F019EF99F0A0EFE6
:1032300098F0A8C549F5A9C54AF5AAC54BF5ABC58F
:103240004CF5ACC54DF5ADC54EF5BAECA9F000098D
:10325000D8B42DEF99F02FEF99F031EF99F0A0EF5E
:1032600098F0050120EE12F09451D9269551DA22FA
:103270006100A8F6DEF46100ACF6DEF46100B0F6A1
:10328000DEF46100B4F6DEF4A8C50DF5A9C50EF5AF
:10329000AAC50FF5ABC510F5ACC511F5ADC512F556
:1032A00072ECADF0050120EE16F09451D92695513F
:1032B000DA22610034F4DEF4610038F4DEF46100F7
:1032C0003CF4DEF4610040F4DEF420EE0EF09451A4
:1032D000D9269551DA22610090F6DEF4610094F669
:1032E000DEF4610098F6DEF461009CF6DEF4FF0E79
:1032F000986F010E996FA4C59AF5A5C59BF59851D5
:103300009A1799519B17A8C59CF5A9C59DF59A5187
:103310009C279B519D23330E9C27000E9D2320EE5E
:103320001AF09451D9269551DA22610070F6DEF434
:10333000610074F6DDF4000E1200610050F5D9F45E
:10334000610054F5DAF4610078F373F5610074F309
:1033500074F559505810571009E1020E565CD8A068
:10336000B4EF99F0B6EF99F0CCEF99F0050120EEAB
:1033700017F07351D9267451DA22DE50565CDE50B4
:103380005758DE505858DE505958D8A0CAEF99F017
:10339000CCEF99F0D7EF99F0010E05016B6F000E9D
:1033A0006C6F000E6D6F000E6E6FC3EF9BF06B695C
:1033B0006C696D696E69A4EF9BF056C571F557C5D0
:1033C00072F5D8907231616F7131606F6051712701
:1033D0006151722373C549F574C54AF520EE23F097
:1033E0007351D9267451DA22610078F360F56100D7
:1033F00078F361F5610078F362F5610078F363F5C5
:1034000071C564F572C565F5090E666FD8906533B0
:103410006433662F06EF9AF0645160254B6E655158
:1034200061214C6E000E62214D6E000E63214E6EC6
:1034300046ECAEF00009D8B420EF9AF022EF9AF0F3
:1034400024EF9AF0C3EF9BF0FF0E0501606F010EB1
:10345000616F71C562F572C563F5605162176151A4
:10346000631773C564F574C565F5625164276351CC
:103470006523330E6425D96E000E6521DA6EDF50A8
:10348000666F66516F6F706B714B722B73C549F528
:1034900074C54AF520EE23F07351D9267451DA220F
:1034A000610078F360F5610078F361F5610078F30D
:1034B00062F5610078F363F571C564F572C565F571
:1034C000090E666FD89065336433662F62EF9AF009
:1034D000645160254B6E655161214C6E000E622176
:1034E0004D6E000E63214E6E46ECAEF00009D8B46E
:1034F0007CEF9AF07EEF9AF080EF9AF0C3EF9BF0AA
:10350000FF0E0501606F010E616F71C562F572C536
:1035100063F5605162176151631773C564F574C533
:1035200065F56251642763516523330E6425D96EB6
:10353000000E6521DA6EDF50666F6651686F676B4B
:1035400067516F136851701356B0A9EF9AF0ABEF43
:103550009AF0B3EF9AF0FF0E6F15696F0F0E7015AA
:103560006A6FC3EF9AF06FC560F570C561F5040E20
:10357000626FD89061336033622FB9EF9AF060C503
:1035800069F561C56AF569C56BF56AC56CF56D6B62
:103590006E6BC3EF9BF073C549F574C54AF520EE19
:1035A00023F07351D9267451DA22610078F360F563
:1035B000610078F361F5610078F362F5610078F3FA
:1035C00063F556C564F557C565F558C566F559C523
:1035D00067F565C564F566C565F567C566F5676B2E
:1035E000605164254B6E615165214C6E62516621BC
:1035F0004D6E635167214E6E46ECAEF00009D8B4B3
:1036000004EF9BF006EF9BF008EF9BF0C3EF9BF0FD
:10361000FF0E0501606F010E616F56C562F557C55B
:1036200063F5D89062376337605162176151631751
:1036300073C564F574C565F56251642763516523EC
:10364000330E6425016E000E6521026EDDECB2F0D2
:1036500001C56BF502C56CF505016D6B6E6BC3EFB3
:103660009BF073C549F574C54AF520EE23F07351FC
:10367000D9267451DA22610078F360F5610078F39D
:1036800061F5610078F362F5610078F363F556C582
:1036900064F557C565F558C566F559C567F5080E53
:1036A00057EF9BF0D8906733663365336433E82E69
:1036B00052EF9BF0605164254B6E615165214C6E59
:1036C000625166214D6E635167214E6E46ECAEF03D
:1036D0000009D8B46EEF9BF070EF9BF072EF9BF097
:1036E000C3EF9BF0FF0E0501606F010E616F56C5C1
:1036F00062F557C563F5D89062376337D890623763
:103700006337605162176151631773C564F574C5FF
:1037100065F56251642763516523330E6425016E9C
:10372000000E6521026EACECAEF0FF0E0114050137
:103730006B6FFF0E02146C6FFF0E03146D6F0F0E94
:1037400004146E6FC3EF9BF06100CCF5D9F46100F7
:10375000D0F5DAF4DF50606F616B6151000AD8B4C4
:10376000B4EF9BF0CCEF99F06051010AD8B4DDEFD3
:1037700099F0030AD8B4CBEF9AF0010AD8B431EF2C
:103780009BF0CCEF99F06BC554F56CC555F56DC544
:1037900056F56EC557F51200610068F5D9F4610061
:1037A0006CF5DAF4610078F387F5610074F388F55D
:1037B0005F5007E1200E5E5CD8B0E1EF9BF0E3EFD5
:1037C0009BF0FBEF9BF01F0E5C140501756F000E64
:1037D0005D14766F000E5E14776F000E5F14786FC5
:1037E0007551761177117811D8B4F9EF9BF0FBEF92
:1037F0009BF0FEEF9BF0020EB8EF9DF020EE0EF076
:103800005A50D9265B50DA22610070F5DEF461006F
:1038100074F5DEF4610078F5DEF461007CF5DEF429
:1038200020EE06F05A50D9265B50DA22610078F378
:1038300083F5610078F384F5610078F385F5610024
:1038400078F386F58351841185118611D8A42BEF66
:103850009CF02DEF9CF04DEF9CF061001CF6D9F42C
:10386000610020F6DAF4020EDF6439EF9CF03BEFE2
:103870009CF04DEF9CF020EE27F08751D92688511F
:10388000DA22610078F383F5610078F384F5610052
:1038900078F385F5610078F386F5835184118511FD
:1038A0008611D8A456EF9CF058EF9CF0A4EF9CF042
:1038B00020EE07F08751D9268851DA22610078F38B
:1038C00075F5610074F376F57551776F7651786F01
:1038D000796B7A6B5CC57BF55DC57CF55EC57DF566
:1038E0005FC57EF5060E7AEF9CF0D8907E337D336F
:1038F0007C337B33E82E75EF9CF077517B5D7851FC
:103900007C5979517D597A517E59D8A08AEF9CF023
:103910008CEF9CF08EEF9CF0FBEF9BF020EE27F0FD
:103920008751D9268851DA2210EE16F05A50E12636
:103930005B50E222DEC4E6F4DEC4E6F4DEC4E6F464
:10394000DEC4E6F44CEF9DF020EE09F08751D92655
:103950008851DA22610078F375F5610074F376F529
:103960007551776F7651786F796B7A6B090ED890B5
:103970007737783779377A37E82EB7EF9CF077C505
:103980007FF578C580F579C581F57AC582F51DEF9B
:103990009DF05AC554F55BC555F583C556F584C5EC
:1039A00057F585C558F586C559F59DEC99F054C570
:1039B00083F555C584F556C585F557C586F50501CA
:1039C00083290AE1842908E1852906E18629D8A40A
:1039D000ECEF9CF0EEEF9CF0F1EF9CF0010EB8EFF5
:1039E0009DF086518511841109E1020E835DD8A0F6
:1039F000FCEF9CF0FEEF9CF0FBEF9BF020EE17F04D
:103A00008751D9268851DA22DE50835DDE508459F1
:103A1000DE508559DE508659D8A011EF9DF013EF86
:103A20009DF015EF9DF0FBEF9BF07F515C5E8051A8
:103A30005D5A81515E5A82515F5A7F515C5C805160
:103A40005D5881515E5882515F58D8B02AEF9DF081
:103A50002CEF9DF0C9EF9CF087C50DF588C50EF5DC
:103A600083C50FF584C510F585C511F586C512F51A
:103A700072ECADF020EE16F05A50D9265B50DA22E7
:103A8000610034F4DEF4610038F4DEF461003CF4EB
:103A9000DEF4610040F4DEF420EE12F05A50D92634
:103AA0005B50DA2261000CF6DEF4610010F6DEF401
:103AB000610014F6DEF4610018F6DEF420EE16F074
:103AC0005A50D9265B50DA22DE50DE10DE10DE10AE
:103AD000D8A46DEF9DF06FEF9DF071EF9DF0FBEFBF
:103AE0009BF05CC575F55DC576F55EC577F55FC580
:103AF00078F50A0E82EF9DF00501D8907833773380
:103B000076337533E82E7CEF9DF020EE16F05A5098
:103B1000D9265B50DA227551DE267651DE227751A6
:103B2000DE227851DE22FF0E756F010E766F5CC5C6
:103B300077F55DC578F5755177177651781787C594
:103B400079F588C57AF57751792778517A23330E3C
:103B50007927000E7A2320EE1AF05A50D9265B50AE
:103B6000DA226100E4F5DEF46100E8F5DDF4000E30
:103B700012006100D8F6D9F46100DCF6DAF46100D5
:103B800078F3C0F5610074F3C1F56100E0F6F6F476
:103B90006100E4F6F7F4000EF86E0800F5502F0A05
:103BA000D8B4D5EF9DF0D7EF9DF003EF9EF0610004
:103BB000E0F6F6F46100E4F6F7F4000EF86E0800A3
:103BC000F5505C0AD8B4E7EF9DF0E9EF9DF003EF04
:103BD0009EF0050120EE13F0C051D926C151DA2222
:103BE00010EE06F0B651E126B751E222DEC4E6F44B
:103BF000DEC4E6F4DEC4E6F4DEC4E6F432EF9EF0A2
:103C00000501B84BB92B6100E0F6F6F46100E4F66B
:103C1000F7F4000EF86E0800F5502F0AD8B413EF31
:103C20009EF015EF9EF000EF9EF06100E0F6F6F4D6
:103C30006100E4F6F7F4000EF86E0800F5505C0A37
:103C4000D8B425EF9EF027EF9EF000EF9EF005011F
:103C500020EE06F0B651D926B751DA22DE6ADE6AC6
:103C6000DE6ADD6A6100E0F6F6F46100E4F6F7F47E
:103C7000000EF86E200E0800F56041EF9EF043EF55
:103C80009EF05DEF9EF020EE27F0B651D926B75199
:103C9000DA22800EDF6EB6C55AF5B7C55BF5000EA9
:103CA0005C6E000E5D6E000E5E6E000E5F6ECCEC04
:103CB0009BF00501C36F10EF9FF0B6C509F5B7C5BE
:103CC0000AF5B80E0B6E050E0C6E0AEC95F00501A8
:103CD000C36FC351D8B46FEF9EF071EF9EF073EFD6
:103CE0009EF010EF9FF0B6C5AEF5B7C5AFF566EC28
:103CF000A5F00501C36F20EE27F0B651D926B751C4
:103D0000DA22DF50C26FC351D8B489EF9EF08BEF37
:103D10009EF0BBEF9EF0040EC319D8A492EF9EF064
:103D200094EF9EF010EF9FF0C2AB99EF9EF09BEFE7
:103D30009EF0B0EF9EF0C2B5A0EF9EF0A2EF9EF015
:103D4000A4EF9EF05DEF9EF020EE27F0B651D9264D
:103D5000B751DA22800EDF6E000EC36F10EF9FF0B6
:103D6000C2B5B5EF9EF0B7EF9EF010EF9FF0050ED5
:103D7000C36F10EF9FF0C2A5C0EF9EF0C2EF9EF0A0
:103D8000C4EF9EF010EF9FF020EE04F0B651D9265C
:103D9000B751DA22DFB8CFEF9EF0D1EF9EF0D3EF2C
:103DA0009EF0B7EF9EF0C0C508F5C1C509F5FF0E3E
:103DB000BA6F010EBB6F20EE0EF0B651D926B75187
:103DC000DA22610078F3BCF5610074F3BDF5BA51F5
:103DD000BC17BB51BD17C0C5BEF5C1C5BFF5BC51B1
:103DE000BE27BD51BF23330EBE250A6E000EBF2174
:103DF0000B6EF5ECAFF0050120EE06F0B651D926BA
:103E0000B751DA22610020F4DEF4610024F4DEF41C
:103E1000610028F4DEF461002CF4DEF45DEF9EF026
:103E2000C3511200096E000E086E090E076EC0968F
:103E30000950040DE50EF324F66EFE0EF420F76E25
:103E4000F86A000EF82208006100D4F311F502C5EB
:103E50000DF503C50EF504C50FF505C510F50950A0
:103E6000040D010EF326000EF422E50EF324F66E87
:103E7000FE0EF420F76EF86A000EF82208006100CA
:103E8000D4F30CF5115001ECB4F0105001ECB4F087
:103E90000F5001ECB4F00E5001ECB4F00D5001ECF9
:103EA000B4F00C5001ECB4F00950040D020EF326EE
:103EB000000EF422E50EF324F66EFE0EF420F76EEB
:103EC000F86A000EF8220800F5500009D8B46BEF2C
:103ED0009FF06DEF9FF086EF9FF00950040D020EEA
:103EE000F326000EF422E50EF324F66EFE0EF42007
:103EF000F76EF86A000EF8220800F550E806D8A41C
:103F000084EF9FF086EF9FF09FEF9FF018ECB4F0E6
:103F10000A6E0706D8A008060A28D8A492EF9FF0D8
:103F200094EF9FF0DAEF9FF007500810D8A49BEFB2
:103F30009FF09DEF9FF086EF9FF0DAEF9FF0095022
:103F4000040D020EF326000EF422E50EF324F66EA5
:103F5000FE0EF420F76EF86A000EF8220800F55005
:103F6000020AD8A4B6EF9FF0B8EF9FF0DAEF9FF007
:103F700018ECB4F00A6E0706D8A008060A28D8A4E0
:103F8000C4EF9FF0C6EF9FF0CFEF9FF007500810EF
:103F9000D8A4CDEF9FF0CFEF9FF0B8EF9FF00A28A5
:103FA000D8B4D5EF9FF0D7EF9FF0DAEF9FF018EC81
:103FB000B4F00B6E0950040D020EF326000EF4222D
:103FC000E50EF324F66EFE0EF420F76EF86A000E8E
:103FD000F8220800F550E806D8A4F1EF9FF0F3EFBF
:103FE0009FF023EFA0F0000E0A6E000E066E13EF96
:103FF000A0F00768086818ECB4F00A6E0706D8A0AD
:1040000008060A50D8A407EFA0F009EFA0F012EFBD
:10401000A0F007500810D8A410EFA0F012EFA0F005
:10402000FBEF9FF0062A0628D8B419EFA0F01BEF8B
:10403000A0F023EFA0F00A50D8B421EFA0F023EFB6
:10404000A0F0F9EF9FF0FF0E01ECB4F00950040D61
:10405000030EF326000EF422E50EF324F66EFE0E98
:10406000F420F76EF86A000EF8220800F5500009F7
:10407000D8A43DEFA0F03FEFA0F040EFA0F0C08645
:104080000AC502F50BC503F512006100DCF5D9F491
:104090006100E0F5DAF4610078F38EF5610074F305
:1040A0008FF505017C517B117A1109E1020E795DD2
:1040B000D8A05DEFA0F05FEFA0F074EFA0F020EECD
:1040C00017F08E51D9268F51DA22DE50795DDE50FD
:1040D0007A59DE507B59DE507C59D8A072EFA0F09F
:1040E00074EFA0F077EFA0F0020E61EFA1F07D5128
:1040F0007E117F118011D8B480EFA0F082EFA0F084
:10410000A5EFA0F08EC554F58FC555F57DC556F5C4
:104110007EC557F57FC558F580C559F5FF0E5A6E17
:10412000FF0E5B6EFF0E5C6EFF0E5D6E53EC92F049
:1041300005018D6F8D51D8B4A0EFA0F0A2EFA0F0D3
:10414000A5EFA0F08D5161EFA1F077C554F578C5CA
:1041500055F579C556F57AC557F57BC558F57CC533
:1041600059F59DEC99F054C589F555C58AF556C5A4
:104170008BF557C58CF5050189518A118B118C116E
:10418000D8A4C5EFA0F0C7EFA0F0C9EFA0F060EF92
:10419000A1F089058A118B118C11D8A4D2EFA0F05F
:1041A000D4EFA0F0D6EFA0F074EFA0F089290AE1D7
:1041B0008A2908E18B2906E18C29D8A4E2EFA0F036
:1041C000E4EFA0F0E7EFA0F0010E61EFA1F08EC5E3
:1041D00054F58FC555F579C556F57AC557F57BC5A4
:1041E00058F57CC559F5000E5A6E000E5B6E000E38
:1041F0005C6E000E5D6E53EC92F005018D6F8D517B
:10420000D8B405EFA1F007EFA1F009EFA1F0A2EFFC
:10421000A0F020EE17F08E51D9268F51DA22FE0E33
:10422000DE24816FFF0EDE20826FFF0EDE20836FA3
:10423000FF0EDE20846F20EE0FF08E51D9268F51B5
:10424000DA228151DE5C8251DE588351DE5884517E
:10425000DE58D8B02EEFA1F030EFA1F043EFA1F07F
:1042600020EE0FF08E51D9268F51DA22DE2A000E71
:10427000DE22DE22DE2220EE04F08E51D9268F517E
:10428000DA22000EDB8089C579F58AC57AF58BC5FF
:104290007BF58CC57CF520EE17F08E51D9268F5119
:1042A000DA22DE50795DDE507A59DE507B59DE50DD
:1042B0007C59D8A05EEFA1F060EFA1F0A5EFA0F0CF
:1042C000000E120049C536F54AC537F584ECA4F056
:1042D000536E5350D8A46FEFA1F071EFA1F074EFBB
:1042E000A2F0610024F5D9F4610028F5DAF4030E98
:1042F000DE18D8A47EEFA1F080EFA1F05BEFA2F072
:1043000020EE04F04950D9264A50DA22DE04D8A41F
:104310008CEFA1F08EEFA1F05BEFA2F0330E4924F9
:10432000016E000E4A20026E000E046E000E036E37
:10433000020E066E000E056E33ECB3F0310E49240A
:10434000016E020E4A20026EAA0E046E550E036E16
:10435000A0ECB3F0330E4924016E000E4A20026E29
:10436000520E036E520E046E610E056E410E066E05
:1043700037ECB0F0170E4924016E020E4A20026E8F
:10438000720E036E720E046E410E056E610E066EA5
:1043900037ECB0F01B0E4924016E020E4A20026E6B
:1043A00020EE0FF04950D9264A50DA22610078F306
:1043B00003F5610078F304F5610078F305F5610019
:1043C00078F306F537ECB0F01F0E4924016E020EAB
:1043D0004A20026E20EE0BF04950D9264A50DA22CC
:1043E000610078F303F5610078F304F5610078F378
:1043F00005F5610078F306F537ECB0F020EE1FF01C
:104400004950D9264A50DA22610078F34BF5610011
:1044100078F34CF5610078F34DF5610078F34EF5D3
:10442000010E4B244F6E000E4C20506E000E4D209E
:10443000516E000E4E20526E20EE2FF04950D926BC
:104440004A50DA2261003CF5DEF4610040F5DEF40A
:10445000610044F5DEF4610048F5DEF4330E4924D2
:104460002A6E000E4A202B6E20EE2FF04950D926DE
:104470004A50DA22610078F32CF5610078F32DF5CB
:10448000610078F32EF5610078F32FF5000E316EA0
:10449000010E306E20EE01F04950D9264A50DA2242
:1044A000DF502EECB1F020EE04F04950D9264A50EE
:1044B000DA22000EDF6E000E016E000E026E000E9C
:1044C000036E20EE01F04950D9264A50DA22DF501F
:1044D000BAECB3F00009D8B470EFA2F072EFA2F01A
:1044E00074EFA2F0010E536E5350120054C507F53D
:1044F00055C508F5590E096E050E0A6E62ECAAF054
:10450000566E5650D8A487EFA2F089EFA2F081EF43
:10451000A3F020EE0EF05450D9265550DA22DFAC2D
:1045200094EFA2F096EFA2F081EFA3F020EE0EF050
:104530005450D9265550DA22DFAEA1EFA2F0A3EFF6
:10454000A2F0DBEFA2F0240E54242A6E000E5520B8
:104550002B6E20EE18F05450D9265550DA22610007
:1045600078F32CF5610078F32DF5610078F32EF5E2
:10457000610078F32FF5000E316E010E306E20EEE3
:1045800001F05950D9265A50DA22DF502EECB1F002
:104590000009D8B4CEEFA2F0D0EFA2F0D3EFA2F092
:1045A000010E82EFA3F020EE0EF05450D9265550A4
:1045B000DA227F0EDF1659C549F55AC54AF520EEB5
:1045C0001CF05450D9265550DA22610078F34BF58F
:1045D000610078F34CF5610078F34DF5610078F3F4
:1045E0004EF546ECAEF0566E5650D8A4FAEFA2F057
:1045F000FCEFA2F081EFA3F020EE20F05450D9267A
:104600005550DA22610078F357F5610074F358F5DC
:1046100020EE0BF05750D9265850DA22000EDB8AD4
:10462000610050F5D9F4610054F5DAF4610078F3D3
:1046300005F5610074F306F557C507F558C508F58B
:1046400020EE06F05450D9265550DA22610078F356
:1046500009F5610078F30AF5610078F30BF5610064
:1046600078F30CF58EECB2F01C0E5724016E000EA0
:104670005820026E20EE0AF05450D9265550DA2206
:10468000610078F303F5610078F304F5610078F3D5
:1046900005F5610078F306F537ECB0F0160E5724F7
:1046A000016E000E5820026E000E036E000E046EA6
:1046B000ED0E056E540E066E37ECB0F0120E572458
:1046C000016E000E5820026E000E046E000E036E86
:1046D000A0ECB3F020EE03F05950D9265A50DA225C
:1046E000010EDF6E59C549F55AC54AF562ECA1F0D5
:1046F000566E20EE0EF05450D9265550DA22BF0ED9
:10470000DF1656501200000E296E610088F4D9F4AD
:1047100061008CF4DAF4000EDF6EBDECB4F0C086FC
:1047200094ECB4F0090E256E1E0E246EE40EE82EF5
:10473000FED7242EFCD7252EFAD700D0000E2B6EE4
:10474000000E2A6EFF0E01ECB4F02A4A2B2A2B50E1
:1047500009E1320E2A5CD8A0B0EFA3F0B2EFA3F0CB
:10476000A2EFA3F0000E2B6E640E2A6EC086FF0E21
:1047700001ECB4F0C0962A06D8A02B06000E026EFB
:10478000000E036E000E046E000E056E000E12EC9D
:104790009FF002C527F503C528F52704D8B4D3EF49
:1047A000A3F0D5EFA3F0DEEFA3F02A502B10D8A48E
:1047B000DCEFA3F0DEEFA3F0B6EFA3F02A502B104E
:1047C000D8A4E5EFA3F0E7EFA3F0EBEFA3F0020E20
:1047D000296E80EFA4F00F0E2B6E2A68000E026E79
:1047E000000E036E000E046E000E056E010E12EC3C
:1047F0009FF002C527F503C528F52A06D8A02B0689
:104800002750D8B406EFA4F008EFA4F011EFA4F0FD
:104810002A502B10D8A40FEFA4F011EFA4F0EEEF64
:10482000A3F02A502B10D8A418EFA4F01AEFA4F08C
:104830001EEFA4F0030E296E80EFA4F011ECA9F096
:10484000266E2650D8A427EFA4F029EFA4F02DEF70
:10485000A4F094ECB4F02FEFA4F0040E296E000E37
:10486000026E020E036E000E046E000E056E060E42
:1048700012EC9FF0C3ECB4F00009D8B442EFA4F0FE
:1048800044EFA4F04BEFA4F0610088F4D9F4610088
:104890008CF4DAF4DF82000E2B6E2A685EEFA4F04F
:1048A0002A502B10D8A457EFA4F059EFA4F05BEFD7
:1048B000A4F0E7EFA3F02A06D8A02B062A502B106D
:1048C000D8B465EFA4F067EFA4F07DEFA4F0000E7C
:1048D000126E000E136E000E146E000E156E000E9A
:1048E000166E240E176E80ECABF00009D8A47BEF97
:1048F000A4F07DEFA4F050EFA4F0295083EFA4F0D2
:10490000C0867DEFA4F01200000E486E20EE03F08A
:104910003650D9263750DA22DF50D8B492EFA4F0BF
:1049200094EFA4F064EFA5F0330E36242A6E000E47
:1049300037202B6E20EE2FF03650D9263750DA2252
:10494000610078F32CF5610078F32DF5610078F3C0
:104950002EF5610078F32FF5000E316E010E306EEA
:1049600020EE01F03650D9263750DA22DF502EECF7
:10497000B1F00009D8A4BFEFA4F0C1EFA4F062EF3A
:10498000A5F020EE03F03650D9263750DA22000E7B
:10499000DF6E20EE1BF03650D9263750DA2210EEAB
:1049A00023F03650E1263750E222610098F33CF5BF
:1049B000610098F33DF5610098F33EF5610098F3CE
:1049C0003FF510EE2FF03650E1263750E22261001D
:1049D00098F340F5610098F341F5610098F342F5D2
:1049E000610098F343F53C50405C446E3D504158A3
:1049F000456E3E504258466E3F504358476EDE501B
:104A0000445CDE504558DE504658DE504758D8B01A
:104A10000CEFA5F00EEFA5F064EFA5F020EE02F08C
:104A20003650D9263750DA22020EDE18D8A41BEFF2
:104A3000A5F01DEFA5F064EFA5F0330E36242A6E25
:104A4000000E37202B6E20EE1BF03650D926375043
:104A5000DA22610078F338F5610078F339F5610006
:104A600078F33AF5610078F33BF520EE2FF03650FD
:104A7000D9263750DA22610078F33CF5610078F3EB
:104A80003DF5610078F33EF5610078F33FF538506D
:104A90003C242C6E39503D202D6E3A503E202E6E17
:104AA0003B503F202F6E000E316E010E306E20EE17
:104AB00001F03650D9263750DA22DF502EECB1F013
:104AC00064EFA5F0010E486E485012006100B8F680
:104AD000D9F46100BCF6DAF4610078F3B2F5610054
:104AE00074F3B3F5AEC55AF5AFC55BF5000E5C6E59
:104AF000000E5D6E000E5E6E000E5F6ECCEC9BF0E5
:104B00000501B56FB551D8B488EFA5F08AEFA5F0CF
:104B10008EEFA5F00501B55134EFA6F0B2C549F509
:104B2000B3C54AF520EE16F0AE51D926AF51DA22C0
:104B3000610078F34BF5610078F34CF5610078F390
:104B40004DF5610078F34EF546ECAEF00501B56F1A
:104B5000B551D8B4AEEFA5F0B0EFA5F0B2EFA5F027
:104B60008AEFA5F020EE1AF0AE51D926AF51DA2225
:104B7000610078F3B0F5610074F3B1F56100C0F63F
:104B8000D9F46100C4F6DAF4DF50B46FB451D8A49C
:104B9000CCEFA5F0CEEFA5F0D2EFA5F0040EB56FE7
:104BA0008AEFA5F020EE04F0AE51D926AF51DA22FB
:104BB00010EE1AF0AE51E126AF51E22200EE0BF0FA
:104BC000E650E926E550EA22EF503F0BDF6E20EE7B
:104BD0001AF0AE51D926AF51DA2210EE0BF0DE50AA
:104BE000E126DD50E222E7B6F8EFA5F0FAEFA5F0F6
:104BF0001DEFA6F020EE1AF0AE51D926AF51DA2201
:104C0000610078F301F5610074F302F51C0EAE2526
:104C1000036E000EAF21046E000E066E0B0E056EC5
:104C2000ADECAFF001500210D8A419EFA6F01BEFC5
:104C3000A6F01DEFA6F08AEFA5F0AEC594F5AFC5BE
:104C400095F5000E0501976F000E966F66EC97F0D4
:104C50000501B56FB551D8B430EFA6F032EFA6F02C
:104C60008EEFA5F08AEFA5F01200610038F4D9F4B8
:104C700061003CF4DAF4610078F31AF5610074F332
:104C80001BF520EE22F00E50D9260F50DA226100DB
:104C900078F314F5610074F315F5040E1424206EF6
:104CA000000E1520216E10C514F511C515F512C59D
:104CB00016F513C517F50A0E63EFA6F0D890173254
:104CC000163215321432E82E5EEFA6F014C501F547
:104CD00015C502F516C503F517C504F520EE09F054
:104CE0001A50D9261B50DA22610078F318F56100BA
:104CF00074F319F518C505F519C506F5076A086AAC
:104D00000AECAFF001C51CF502C51DF503C51EF583
:104D100004C51FF5610080F4D9F4610084F4DAF46D
:104D2000610078F322F5610078F323F5610078F3F0
:104D300024F5610078F325F5040E2026000E2122CB
:104D40002250231024102510D8A4A9EFA6F0ABEF11
:104D5000A6F0B5EFA6F0000E0E6E000E0F6E000E60
:104D6000106E000E116EF2EFA6F022501C5C235064
:104D70001D5824501E5825501F58D8B0C2EFA6F019
:104D8000C4EFA6F0C6EFA6F0D4EFA6F022501C5E4A
:104D900023501D5A24501E5A25501F5A040E2026F7
:104DA000000E21228AEFA6F0610080F4D9F46100A0
:104DB00084F4DAF4610078F314F5610078F315F502
:104DC000610078F316F5610078F317F51C50142490
:104DD0000E6E1D5015200F6E1E501620106E1F50A7
:104DE0001720116E12000A680B68610004F4D9F4F0
:104DF000610008F4DAF4610078F30CF5610074F3F3
:104E00000DF50CC507F50DC508F50C500D10D8A40F
:104E10000CEFA7F00EEFA7F012EFA7F00168026801
:104E2000AEEFA7F061001CF4F6F4610020F4F7F493
:104E3000000EF86E08006100D4F309F5074A082A4D
:104E4000200E096426EFA7F028EFA7F031EFA7F0B6
:104E50003A0E0918D8A42FEFA7F031EFA7F012EF00
:104E6000A7F03A0E0918D8A438EFA7F03AEFA7F048
:104E7000A7EFA7F0000E066E010E056E610030F47C
:104E8000F6F4610034F4F7F4000EF86E2F0E08000B
:104E9000F5644DEFA7F04FEFA7F084EFA7F06100A6
:104EA00030F4F6F4610034F4F7F4000EF86E3A0EC4
:104EB0000800F5605EEFA7F060EFA7F084EFA7F0C1
:104EC000020E0C24036E000E0D20046E0750031812
:104ED00007E108500418D8A470EFA7F072EFA7F00C
:104EE00084EFA7F0610030F4F6F4610034F4F7F4D5
:104EF000000EF86E08006100D4F303F5D00E032411
:104F0000056E066AFF0E062206BE91EFA7F0065058
:104F100006E10504D8B08FEFA7F091EFA7F0A1EF5D
:104F2000A7F005C50AF506C50BF5610004F4D9F430
:104F3000610008F4DAF461001CF4DEF4610020F48E
:104F4000DDF40AC501F50BC502F5AEEFA7F0FFC50C
:104F50000AF50B6A0AC501F50BC502F512006100DE
:104F6000B8F6D9F46100BCF6DAF4610078F3B5F56F
:104F7000610074F3B6F5AEC55AF5AFC55BF5000E2A
:104F80005C6E000E5D6E000E5E6E000E5F6ECCEC11
:104F90009BF00501B96FB951D8A4D1EFA7F0D3EFB9
:104FA000A7F058EFA8F0000EB86F000EB76FB5C5A8
:104FB00049F5B6C54AF520EE16F0AE51D926AF51E7
:104FC000DA22610078F34BF5610078F34CF561006B
:104FD00078F34DF5610078F34EF546ECAEF005013F
:104FE000B96FB951D8B4F7EFA7F0F9EFA7F0FBEF1D
:104FF000A7F058EFA8F020EE1AF0AE51D926AF5125
:10500000DA22610078F3B2F5610074F3B3F5610060
:10501000C8F6D9F46100CCF6DAF4E50EDE18D8B49F
:1050200014EFA8F016EFA8F030EFA8F020EE1AF079
:10503000AE51D926AF51DA22610078F3B2F56100A2
:1050400074F3B3F56100C8F6D9F46100CCF6DAF474
:10505000DF50D8A42EEFA8F030EFA8F040EFA8F072
:10506000B74BB82BB051B71907E1B151B819D8A453
:105070003CEFA8F03EEFA8F044EFA8F058EFA8F0FE
:10508000000EB86F000EB76FAEC594F5AFC595F5BD
:10509000000E976F010E966F66EC97F00501B96FE1
:1050A000B951D8B456EFA8F058EFA8F0D7EFA7F051
:1050B000040EB919D8A45FEFA8F061EFA8F063EF70
:1050C000A8F0070EB96FB951120020EE03F054504A
:1050D000D9265550DA22000EDF6E20EE2FF0545004
:1050E000D9265550DA22FF0EDE6EFF0EDE6EFF0E61
:1050F000DE6EFF0EDD6E54C549F555C54AF556C541
:105100004BF557C54CF558C54DF559C54EF546EC10
:10511000AEF00009D8B48FEFA8F091EFA8F094EFAB
:10512000A8F0040E10EFA9F0310E5424016E020E07
:105130005520026EDDECB2F0550E011809E1AA0E01
:105140000218D8B4A6EFA8F0A8EFA8F0ABEFA8F02B
:10515000030E10EFA9F020EE33F05450D92655502D
:10516000DA22E90EDE18D8B4B8EFA8F0BAEFA8F04A
:10517000D8EFA8F020EE33F05450D9265550DA225B
:10518000EB0EDE18D8B4C7EFA8F0C9EFA8F0D8EF3F
:10519000A8F020EE33F05450D9265550DA22E80E0C
:1051A000DE18D8A4D6EFA8F0D8EFA8F00FEFA9F03A
:1051B000690E5424016E000E5520026EF80E036E27
:1051C000FF0E046E000E066E030E056EADECAFF022
:1051D00001500210D8A4EFEFA8F0F1EFA8F0F4EF1F
:1051E000A8F0000E10EFA9F0850E5424016E000EF9
:1051F0005520026EED0E036EFF0E046E000E066E5D
:10520000050E056EADECAFF001500210D8A40BEF07
:10521000A9F00DEFA9F00FEFA9F0F1EFA8F0020E41
:105220001200020E076E000E046E020E036E02687C
:10523000C096ED0EF66EFE0EF76E000EF86E0800CC
:105240006100D4F310F5000E0C6E000E0D6E000E12
:105250000E6E000E0F6EEE0EF66EFE0EF76E000E68
:10526000F86E08006100D4F30BF5105001ECB4F0B7
:105270000F5001ECB4F00E5001ECB4F00D5001EC05
:10528000B4F00C5001ECB4F00B5001ECB4F018EC9D
:10529000B4F0056E0206D8A003060528D8A453EF83
:1052A000A9F055EFA9F05EEFA9F002500310D8A4C1
:1052B0005CEFA9F05EEFA9F047EFA9F00550D8B474
:1052C00064EFA9F066EFA9F06AEFA9F0050E046E8D
:1052D000B7EFA9F0020E0A6E096818ECB4F0086E78
:1052E0000906D8A00A060828D8A479EFA9F07BEF10
:1052F000A9F084EFA9F009500A10D8A482EFA9F010
:1053000084EFA9F06DEFA9F009500A10D8B48BEF23
:10531000A9F08DEFA9F096EFA9F0FE0E0818D8B409
:1053200094EFA9F096EFA9F09AEFA9F0060E046E9B
:10533000B4EFA9F0000E0A6E000E096E730E092478
:10534000D96E060E0A20DA6E18ECB4F0DF6E094A48
:105350000A2A0A5009E1100E095CD8A0B2EFA9F0A0
:10536000B4EFA9F09EEFA9F0FF0E01ECB4F0C086F7
:105370000450120049C536F54AC537F584ECA4F04F
:105380000009D8B4C6EFA9F0C8EFA9F0CBEFA9F097
:10539000010E61EFAAF049C50DF54AC50EF54BC5E2
:1053A0000FF54CC510F54DC511F54EC512F572EC53
:1053B000ADF00DC553F50EC554F50FC555F510C527
:1053C00056F520EE2FF04950D9264A50DA226100D6
:1053D0004CF5DEF4610050F5DEF4610054F5DEF4C6
:1053E000610058F5DEF4330E4924016E000E4A20A8
:1053F000026E000E046E000E036E020E066E000EAC
:10540000056E33ECB3F0330E4924516E000E4A2082
:10541000526E000E586E010E576E000E5A6E000E40
:10542000596E17EFAAF05750592658505A2220EEBD
:1054300009F04950D9264A50DA22DE50595CDE5034
:105440005A58D8B026EFAAF028EFAAF04DEFAAF0EC
:1054500051C52AF552C52BF5595053242C6E5A507C
:1054600054202D6E000E55202E6E000E56202F6EED
:1054700057C530F558C531F520EE01F04950D92611
:105480004A50DA22DF502EECB1F00009D8B44BEFCD
:10549000AAF04DEFAAF013EFAAF020EE09F0495060
:1054A000D9264A50DA225950DE1807E15A50DE1840
:1054B000D8A45DEFAAF060EFAAF0010E61EFAAF0A8
:1054C000000E1200090E116E07500810D8B46BEFD1
:1054D000AAF06DEFAAF0CDEFAAF061001CF4D9F4A8
:1054E000610020F4DAF4DE50DE10D8B47AEFAAF0CE
:1054F0007CEFAAF0CDEFAAF061001CF4D9F46100B2
:1055000020F4DAF4610078F30BF5610074F30CF524
:1055100061002CF4D9F4610030F4DAF4DF50D8B42F
:1055200094EFAAF096EFAAF0CDEFAAF061001CF478
:10553000D9F4610020F4DAF410EE05F0DE50E12633
:10554000DD50E22220EE02F00750D9260850DA2280
:10555000E650DE1807E1E650DE18D8A4B2EFAAF054
:10556000B4EFAAF0CDEFAAF061001CF4D9F4610009
:1055700020F4DAF410EE01F0DE50E126DD50E222F4
:10558000E75079ECB0F00B6E0BB0C9EFAAF0CBEF9F
:10559000AAF0CDEFAAF0000E116E1150D8B4D3EFDF
:1055A000AAF0D5EFAAF0DBEFAAF0000E0F6E000E06
:1055B000106EE7EFAAF061001CF4D9F4610020F44A
:1055C000DAF4610078F30FF5610074F310F561000F
:1055D00024F4D9F4610028F4DAF461003CF4DEF438
:1055E000610040F4DDF411501200000E1E6E12C571
:1055F00018F513C519F514C51AF515C51BF5090ECF
:10560000D890183619361A361B36E82E00EFABF054
:1056100018C502F519C503F51AC504F51BC505F52E
:10562000090E12EC9FF002C51CF503C51DF51C50B8
:10563000D8B41DEFABF01FEFABF023EFABF0050ECE
:105640001E6E7DEFABF0FE0E01ECB4F0000E216E8D
:10565000000E206E20501624D96E21501720DA6ECD
:10566000DF5001ECB4F0204A212A020E215CD8A0C0
:105670003CEFABF03EEFABF02AEFABF0FF0E01ECEE
:10568000B4F0FF0E01ECB4F018ECB4F01F6E1F5034
:105690000F0B050AD8B44FEFABF051EFABF055EF5D
:1056A000ABF0080E1E6E7AEFABF0000E216E000E0E
:1056B000206E18ECB4F01F6E204A212A1F50D8A487
:1056C00064EFABF066EFABF06FEFABF02050211062
:1056D000D8A46DEFABF06FEFABF059EFABF020500B
:1056E0002110D8A476EFABF078EFABF07AEFABF007
:1056F000060E1E6EFF0E01ECB4F0C0861E501200A6
:10570000000E1E6E12C518F513C519F514C51AF54D
:1057100015C51BF5090ED890183619361A361B36E2
:10572000E82E8BEFABF018C502F519C503F51AC5C5
:1057300004F51BC505F5070E12EC9FF002C51CF51C
:1057400003C51DF51C50D8B4A8EFABF0AAEFABF021
:10575000AEEFABF0050E1E6EFFEFABF0020E216E4A
:10576000206818ECB4F01F6E2006D8A021061F2870
:10577000D8A4BDEFABF0BFEFABF0C8EFABF020505B
:105780002110D8A4C6EFABF0C8EFABF0B1EFABF08F
:1057900020502110D8B4CFEFABF0D1EFABF0DAEF5F
:1057A000ABF0FE0E1F18D8B4D8EFABF0DAEFABF0C9
:1057B000DEEFABF0060E1E6EFCEFABF0000E216EBE
:1057C000000E206E20501624D96E21501720DA6E5C
:1057D00018ECB4F0DF6E204A212A020E215CD8A01A
:1057E000F4EFABF0F6EFABF0E2EFABF0FF0E01EC55
:1057F000B4F0FF0E01ECB4F0FF0E01ECB4F0C08683
:105800001E501200046E000ED16E000EC96EC89CB0
:10581000C89AC89EC09CC09AC09E7AECB4F0300E64
:10582000FBECB2F0680E036EE40EE82EFED7032EFA
:10583000FCD700D0300EFBECB2F0150E036EC60E96
:10584000E82EFED7032EFCD700D0320EFBECB2F0D0
:10585000EAECB3F00009D8A430EFACF032EFACF0D2
:1058600028EFACF0EAECB3F00009D8A43AEFACF0C2
:105870003CEFACF032EFACF00450FBECB2F0EAECF1
:10588000B3F00009D8A447EFACF049EFACF03FEF1C
:10589000ACF0080EFBECB2F0EAECB3F00009D8A4CF
:1058A00054EFACF056EFACF04CEFACF00F0EFBEC5D
:1058B000B2F0EAECB3F00009D8A461EFACF063EF0A
:1058C000ACF059EFACF0010EFBECB2F0EAECB3F047
:1058D0000009D8A46EEFACF070EFACF066EFACF05E
:1058E000060EFBECB2F0EAECB3F00009D8A47BEFB3
:1058F000ACF07DEFACF073EFACF0800E17ECB3F0D2
:1059000012006100E8F6D9F46100ECF6DAF4610007
:1059100078F3BCF5610074F3BDF5BAC5AEF5BBC54F
:10592000AFF5000E0501B16F010EB06FAFECA7F03F
